{
    "contractName": "Playground",
    "abi": [
        {
            "inputs": [],
            "stateMutability": "nonpayable",
            "type": "constructor"
        },
        {
            "inputs": [
                {
                    "internalType": "uint256",
                    "name": "",
                    "type": "uint256"
                }
            ],
            "name": "data",
            "outputs": [
                {
                    "internalType": "uint256",
                    "name": "id",
                    "type": "uint256"
                },
                {
                    "internalType": "string",
                    "name": "title",
                    "type": "string"
                },
                {
                    "internalType": "string",
                    "name": "description",
                    "type": "string"
                },
                {
                    "internalType": "string",
                    "name": "website",
                    "type": "string"
                },
                {
                    "internalType": "string",
                    "name": "imageUrl",
                    "type": "string"
                }
            ],
            "stateMutability": "view",
            "type": "function",
            "constant": true
        },
        {
            "inputs": [],
            "name": "owner",
            "outputs": [
                {
                    "internalType": "address payable",
                    "name": "",
                    "type": "address"
                }
            ],
            "stateMutability": "view",
            "type": "function",
            "constant": true
        },
        {
            "inputs": [
                {
                    "internalType": "string",
                    "name": "_title",
                    "type": "string"
                },
                {
                    "internalType": "string",
                    "name": "_description",
                    "type": "string"
                },
                {
                    "internalType": "string",
                    "name": "_website",
                    "type": "string"
                },
                {
                    "internalType": "string",
                    "name": "_imageUrl",
                    "type": "string"
                }
            ],
            "name": "addData",
            "outputs": [],
            "stateMutability": "nonpayable",
            "type": "function"
        },
        {
            "inputs": [],
            "name": "getData",
            "outputs": [
                {
                    "components": [
                        {
                            "internalType": "uint256",
                            "name": "id",
                            "type": "uint256"
                        },
                        {
                            "internalType": "string",
                            "name": "title",
                            "type": "string"
                        },
                        {
                            "internalType": "string",
                            "name": "description",
                            "type": "string"
                        },
                        {
                            "internalType": "string",
                            "name": "website",
                            "type": "string"
                        },
                        {
                            "internalType": "string",
                            "name": "imageUrl",
                            "type": "string"
                        }
                    ],
                    "internalType": "struct Data[]",
                    "name": "",
                    "type": "tuple[]"
                }
            ],
            "stateMutability": "view",
            "type": "function",
            "constant": true
        },
        {
            "inputs": [],
            "name": "getDataCount",
            "outputs": [
                {
                    "internalType": "uint256",
                    "name": "",
                    "type": "uint256"
                }
            ],
            "stateMutability": "view",
            "type": "function",
            "constant": true
        }
    ],
    "bytecode": "0x608060405234801561001057600080fd5b5060018054600160a060020a03191633179055610b48806100326000396000f3fe608060405234801561001057600080fd5b5060043610610073577c010000000000000000000000000000000000000000000000000000000060003504633bc5de3081146100785780637355a424146100965780638da5cb5b146100a75780638e372cc9146100ec578063f0ba844014610101575b600080fd5b610080610125565b60405161008d9190610819565b60405180910390f35b60005460405190815260200161008d565b6001546100c79073ffffffffffffffffffffffffffffffffffffffff1681565b60405173ffffffffffffffffffffffffffffffffffffffff909116815260200161008d565b6100ff6100fa366004610999565b6103d6565b005b61011461010f366004610a46565b6104d1565b60405161008d959493929190610a5f565b60606000805480602002602001604051908101604052809291908181526020016000905b828210156103cd57838290600052602060002090600502016040518060a00160405290816000820154815260200160018201805461018690610abe565b80601f01602080910402602001604051908101604052809291908181526020018280546101b290610abe565b80156101ff5780601f106101d4576101008083540402835291602001916101ff565b820191906000526020600020905b8154815290600101906020018083116101e257829003601f168201915b5050505050815260200160028201805461021890610abe565b80601f016020809104026020016040519081016040528092919081815260200182805461024490610abe565b80156102915780601f1061026657610100808354040283529160200191610291565b820191906000526020600020905b81548152906001019060200180831161027457829003601f168201915b505050505081526020016003820180546102aa90610abe565b80601f01602080910402602001604051908101604052809291908181526020018280546102d690610abe565b80156103235780601f106102f857610100808354040283529160200191610323565b820191906000526020600020905b81548152906001019060200180831161030657829003601f168201915b5050505050815260200160048201805461033c90610abe565b80601f016020809104026020016040519081016040528092919081815260200182805461036890610abe565b80156103b55780601f1061038a576101008083540402835291602001916103b5565b820191906000526020600020905b81548152906001019060200180831161039857829003601f168201915b50505050508152505081526020019060010190610149565b50505050905090565b600080546040805160a081018252828152602080820189815292820188905260608201879052608082018690526001840185559380528051600584027f290decd9548b62a8d60345a988386fc84ba6bc95484008f6362f93160ef3e5638101918255925180519495929485949293610472937f290decd9548b62a8d60345a988386fc84ba6bc95484008f6362f93160ef3e56401920190610733565b506040820151805161048e916002840191602090910190610733565b50606082015180516104aa916003840191602090910190610733565b50608082015180516104c6916004840191602090910190610733565b505050505050505050565b600081815481106104e157600080fd5b6000918252602090912060059091020180546001820180549193509061050690610abe565b80601f016020809104026020016040519081016040528092919081815260200182805461053290610abe565b801561057f5780601f106105545761010080835404028352916020019161057f565b820191906000526020600020905b81548152906001019060200180831161056257829003601f168201915b50505050509080600201805461059490610abe565b80601f01602080910402602001604051908101604052809291908181526020018280546105c090610abe565b801561060d5780601f106105e25761010080835404028352916020019161060d565b820191906000526020600020905b8154815290600101906020018083116105f057829003601f168201915b50505050509080600301805461062290610abe565b80601f016020809104026020016040519081016040528092919081815260200182805461064e90610abe565b801561069b5780601f106106705761010080835404028352916020019161069b565b820191906000526020600020905b81548152906001019060200180831161067e57829003601f168201915b5050505050908060040180546106b090610abe565b80601f01602080910402602001604051908101604052809291908181526020018280546106dc90610abe565b80156107295780601f106106fe57610100808354040283529160200191610729565b820191906000526020600020905b81548152906001019060200180831161070c57829003601f168201915b5050505050905085565b82805461073f90610abe565b90600052602060002090601f01602090048101928261076157600085556107a7565b82601f1061077a57805160ff19168380011785556107a7565b828001600101855582156107a7579182015b828111156107a757825182559160200191906001019061078c565b506107b39291506107b7565b5090565b5b808211156107b357600081556001016107b8565b6000815180845260005b818110156107f2576020818501810151868301820152016107d6565b81811115610804576000602083870101525b50601f01601f19169290920160200192915050565b60208082528251828201819052600091906040908185019080840286018301878501865b838110156108cf57603f19898403018552815160a08151855288820151818a87015261086b828701826107cc565b915050878201518582038987015261088382826107cc565b9150506060808301518683038288015261089d83826107cc565b92505050608080830151925085820381870152506108bb81836107cc565b96890196945050509086019060010161083d565b509098975050505050505050565b7f4e487b7100000000000000000000000000000000000000000000000000000000600052604160045260246000fd5b600082601f83011261091d57600080fd5b813567ffffffffffffffff80821115610938576109386108dd565b604051601f8301601f19908116603f01168101908282118183101715610960576109606108dd565b8160405283815286602085880101111561097957600080fd5b836020870160208301376000602085830101528094505050505092915050565b600080600080608085870312156109af57600080fd5b843567ffffffffffffffff808211156109c757600080fd5b6109d38883890161090c565b955060208701359150808211156109e957600080fd5b6109f58883890161090c565b94506040870135915080821115610a0b57600080fd5b610a178883890161090c565b93506060870135915080821115610a2d57600080fd5b50610a3a8782880161090c565b91505092959194509250565b600060208284031215610a5857600080fd5b5035919050565b85815260a060208201526000610a7860a08301876107cc565b8281036040840152610a8a81876107cc565b90508281036060840152610a9e81866107cc565b90508281036080840152610ab281856107cc565b98975050505050505050565b600281046001821680610ad257607f821691505b60208210811415610b0c577f4e487b7100000000000000000000000000000000000000000000000000000000600052602260045260246000fd5b5091905056fea2646970667358221220ed86e8ee4112881ac696a672f635c07c000844f498448034a7512f2babaa545464736f6c634300080a0033",
    "immutableReferences": {},
    "source": "// SPDX-License-Identifier: Unlicensed\npragma solidity ^0.8.10;\n\nstruct Location {\n    string longitude;\n    string latitude;\n}\n\nstruct Data {\n    uint256 id;\n    string title;\n    string description;\n    string website;\n    string imageUrl;\n    // string[] timings;\n    // mapping(string => string) location;\n}\n\ncontract Playground {\n    Data[] public data;\n    address payable public owner;\n\n    constructor() {\n        owner = payable(msg.sender);\n    }\n\n    function addData(string memory _title, string memory _description, string memory _website, string memory _imageUrl) public {\n        uint256 counter = data.length;\n\n        Data memory _data = Data(counter, _title, _description, _website, _imageUrl);\n        data.push(_data);\n    }\n\n    function getData() public view returns(Data[] memory) {\n        return data;\n    }\n\n    function getDataCount() public view returns(uint256) {\n        return data.length;\n    }\n}\n",
    "sourcePath": "/home/zaimabbasi/Developer/projects/playgrounds/server/src/contracts/Playground.sol",
    "compiler": {
        "name": "solc",
        "version": "0.8.10+commit.fc410830.Emscripten.clang"
    },
    "schemaVersion": "3.4.3",
    "updatedAt": "2021-11-24T08:14:18.872Z",
    "networkType": "ethereum",
    "devdoc": {
        "kind": "dev",
        "methods": {},
        "version": 1
    },
    "userdoc": {
        "kind": "user",
        "methods": {},
        "version": 1
    }
}